:100000000C948E5B0C94A25E0C94D35E0C94045FF3
:100010000C94355F0C94665F0C94975F0C94C85FEA
:100020000C94F95F0C94C95B0C94C95B0C94C95B8C
:100030000C94C95B0C9428670C94C95B0D94DD7318
:100040000C94C95B0D942C250C94C95B0C94C95B72
:100050000C94C95B0C94C95B0D948E350C94CB5BEE
:100060000C94C95B0D949AA80C94C95B0C94C95B61
:100070000C94C95B0D949A750C94C95B0C94C95B84
:100080000C94C95B0C94C95B0C94C95B0C94C95B60
:100090000C94C95B0C94C95B0C94C95B0C94C95B50
:1000A0000C94C95B0C94C95B0C94C95B0C94C95B40
:1000B0000C94C95B0C94C95B0C94C95B0C94C95B30
:1000C0000C94C95B0C94C95B0C94167D0C94C95BB1
:1000D0000C94C95B0C94C95B0C94C95B0C94C95B10
:1000E0000C94C95BFD5C025D075D115D1B5D925D5B
:1000F000255D2D5D355D3F5D495D535D605D6A5DEC
:10010000925D745D7E5D885DBF5DC35DAD5DB35D19
:10011000B95D085EC75DCD5DD35DD95DDF5DE55D31
:10012000EB5DF15D085EF75DFD5D035E6862706228
:100130008A627A628A628A628A628A628A628A626F
:100140008A628A628A628A628A628A628A628A624F
:100150008A628A628A628A628A628A628A628A623F
:100160008A628A628A628A6262628A628A628A6257
:100170008A628A628A628A628A6256628A628A6253
:100180008A628A628A628A628A628A628A628A620F
:100190008062856265A965A965A986A965A965A921
:1001A00065A974A974A9DCDAD4DACCDAC4DABCDAC9
:1001B000B4DAACDAA4DA9CDA94DA8CDA84DA7CDAAF
:1001C00074DA6CDA64DA5CDA04DAD1D9A8D989D9BC
:1001D00081D979D971D969D961D959D951D949D92F
:1001E00041D939D931D929D921D919D911D909D91F
:1001F00001D9F9D8F1D8E9D8E1D8D9D8D1D8C9D816
:10020000C1D8B9D8B1D8A9D8A1D899D891D889D806
:1002100081D879D871D869D861D859D851D849D8F6
:1002200041D815D8E2D7DAD740D7A6D60CD693D581
:1002300050D502D5BED471D42ED4E0D39CD34FD3A5
:100240000CD3BED27AD24ED2F6D1CFD1A1D199D190
:1002500068D13CD102D1C8D0A1D06ED04FD0F7CF59
:10026000CBCFA5CF78CF4ECF24CFF2CEA5CE7FCEA9
:1002700028CE02CED7CDB1CD84CD5BCD83CC5DCCA5
:100280002BCC03CCAECB88CB4ACBF3CAC9CA8ACA23
:100290005DCA33CA01CAD7C9A5C97BC924C9FEC86A
:1002A000C3C870C85DC832C80CC8E4DA79E26BE232
:1002B00064E25DE256E24FE23CE272E2CAF0BCF078
:1002C000B5F0AEF0A7F0A0F08DF0C3F0A5F697F66C
:1002D00090F689F682F67BF668F69EF671F871F86C
:1002E00071F871F871F871F871F871F8060360032C
:1002F00018043A0608039E052E055604C6026C0330
:1003000090028A035803C204C2040004CE04B2045B
:10031000C402C402C402C402C402C402C402C402AD
:10032000C402C402C402C402C402C402C402C4029D
:10033000C402C402C402C402C402C402C402D4027D
:10034000EC024605C402C402C402C402C402C402D0
:10035000C402C402C402C402C402C402C402C4026D
:10036000C402C402C402C402C402C402C402C4025D
:10037000C402C402C402C402C402C402C402C4024D
:10038000C402C402C402C402C402C402C402C4023D
:10039000C402C402C402C402C402C402C402C4022D
:1003A000C402C402C402C402C402C402C402C4021D
:1003B000C402C402C402C402C4029003340288020C
:1003C000084AD73B3BCE016E84BCBFFDC12F3D6CBC
:1003D00074319ABD56833DDA3D00C77F11BED9E422
:1003E000BB4C3E916BAAAABE000000803F05A84C02
:1003F000CDB2D44EB93836A9020C50B991868808CE
:100400003CA6AAAA2ABE000000803F000C94D1AEF0
:100410000C94605D0C94EEED0D943D030C947062B1
:100420000D94D3660C9441D90D94816C0C9493AFC8
:100430000D94C26B0C9420ED0C944BEC0D94490A76
:100440000C94A7F00C9462620C9475750C9466F988
:100450000C941CC60D94F0620C94B6AC0D9445003F
:100460000C94115D0C9424C90D94378E0D947C0866
:100470000D945D0A0C945CA50D9436A80C944FD095
:100480000C9440D70C94B7A60C949EDC0C94F7BF48
:100490000D94D0080C94D1D90C946DC10C946A5D64
:1004A0000C940CD60C9465AB0C9481F90C9439D94E
:1004B0000C94A8D90C9433FD0C948A620C94A77AFE
:1004C0000C9461F10C94E9D80C94F9D80C9461D88F
:1004D0000C94FCAE0D946E720C943AF10C94C9CA53
:1004E0000C9469D90C94C8D00D94F1670C94DFAECC
:1004F0000C94FFEC0C9437F70C9469D80C9403DC43
:100500000C94DABE0C9440E10C947E5D0C942BAB01
:100510000D94378D0C9471BE0C9469ED0C9401D937
:100520000D943E360C94E0D30C9451D90C94A4FC59
:100530000C94925D0C9402D50C9490F60C9455C0DA
:100540000C9461AC0C94035E0C9441A50D94EB6289
:100550000C9412A70D9451570C947FCE0C9404DA8E
:100560000D946D570C948F7A0C9450D50C94BCDA82
:100570000C9470C80C9489F60C9403CC0C942ED473
:100580000D94E26B0C94A5E20D946B890D943636B4
:100590000C94ABEC0C94FCFC0D943A6E0C94ECA512
:1005A0000C948AAA0C94B1C00D94498E0C94CCAED4
:1005B0000C9469C00C94AFAC0C9477AA0C9465A908
:1005C0000C9449D80C9441F10C9456BF0C94B0ECA7
:1005D0000C940BDE0D94BA0F0D943B8E0C94C9AFA6
:1005E0000D94866D0C94ACDA0C949DC40C947BAF86
:1005F0000C9419F70C94EB5D0D94206D0C9411D9AB
:100600000C949DE20C945DCC0C940CD30D94F335BA
:100610000D9426360D947A0B0D94C06C0D94FA232C
:100620000C94ADC00C9402CE0C943CE20C94DF5DB3
:100630000C943F5D0C9424CF0C9449A50C9494DA4F
:100640000C9401CA0C94EBA90C945DE20C9471F823
:100650000C94BED20C94D9DD0C946ED00C94CFAE19
:100660000C94FEC80C9488670C9495F80C9429D9C6
:100670000C9480C00C948BF20C940BC00C943FBF74
:100680000C9499D10C94CBCF0C94D7F80D944204D0
:100690000C94D95D0C94A0FC0C94C9D80C9415BF93
:1006A0000C9456E20D94276D0D9426030C942B6048
:1006B0000D944A360D94720B0C9460EF0C947AD220
:1006C0000D9402360C9472BF0D94E6620D94356B56
:1006D0000C9451C00C9433CA0D943A360C949D6519
:1006E0000C94C6FF0C94B2F40C947EBF0D9470472A
:1006F0000C9457F20C94B8F80C949AC00C94D1D87E
:100700000C9466E00C94A4DA0C9468D10C9474DA1E
:100710000C9492BE0D9442360C9467F70C9466BF0D
:100720000D949C8D0C9421D90C943AC00C94C35D0B
:100730000C94C8BF0C9495E20C949EC00C9491D874
:100740000C948CDA0D946A000C9479E20C9477F195
:100750000C94A0F00C94F2CE0C94F2A90C9481D9D4
:100760000C9481D80C945CF10D942D070D94E767DF
:100770000C94A1D00C948FBF0D9420040C9427A747
:100780000C94A5C90C947BC90C94CFFC0C94085E06
:100790000C94EDAE0C94CAF00D9415040C941B5DF2
:1007A0000C9477A50C9487BE0C94AEF00C9441D8B1
:1007B0000C94C4BF0C94F6D10C9428CE0C94ADBF0D
:1007C0000C9491E20C945CDA0C94C7F10C943EF713
:1007D0000C9446F10D94E7050C9471D90D945303D4
:1007E0000C94A0630C9499BF0C94AFEC0C94FFBED6
:1007F0000D94960A0C9489D80C9440AB0D94932ECA
:100800000D94248D0C94C4BE0C9443DB0C9485622F
:100810000C9426C00C94A6D60C9402D10D94996D1C
:100820000C9460AF0C9474A90D94AC060D9419034C
:100830000D941E360C94C75D0C94FDF40C94A1D855
:100840000C9489D90D94F96D0C9409D90C94A2A635
:100850000C9497F60C943BF10C9478CF0C94A26313
:100860000C9440F20C94F1D80C943CD10D948E571A
:100870000D9441080C946FEC0C94F0EE0C947BF604
:100880000C942D5D0C9463AF0C9484DA0C940BAF34
:100890000C947CBE0C94ADF40C94255D0C94C8ECC7
:1008A0000C94D0AE0C9471D80D9458570D943236E8
:1008B0000C9481AF0D9414040D941D030C949EF6BA
:1008C0000C94CDA90C9429AF0C942CF20C941AAF73
:1008D0000C94EDED0D94346C0C947CDA0D942A6B31
:1008E0000C94BF5D0D94B1050C9415D80C94BDBE4D
:1008F0000D945F570C94B5F00D941AA80C94A5ECC8
:100900000C9419D90C94A1D10C9445C10D945008A4
:100910000C94C4A60C94DCEE0C94A9E20D943972EC
:100920000C94E2D70D946D080C94885D0C9400DB58
:100930000C94AABE0C94CFD10D9444030C944ACBD2
:100940000C9468620C94B1CD0C9468F10C9497AF40
:100950000C94EEF40C94FD5D0C949C7A0C94D2A94A
:100960000D949F6D0D945A8E0D9469040C94D7CDFF
:100970000C94BED40C9415F70D9485610C94A3DBF4
:100980000C94D3BE0D942E8D0C94DCDA0C94C3C859
:100990000C9475AF0D9466080D94506E0D94C48E32
:1009A0000C94ADAF0C9480620D94D1050C9487F833
:1009B0000C94A1F40C94A27A0C94DAFC0C948DF0B3
:1009C0000C9428F70C94F75D0C940DF70C94F5ED4E
:1009D0000D9445090C94F9A90C9459D90D944357D9
:1009E0000C944ECF0C946BAF0C94A5F40D94FE5761
:1009F0000C94A9AC0C94EEFF0C94FD5C0D94055284
:100A00000C9484C00D944A570C94AD5D0C94CFAFF8
:100A10000C9459D80D9491080C94A5CE0C9451D8EF
:100A20000C94CBAE0C944AEC0C941CBF0C94745DEB
:100A30000C9498FC0C9466BE0C94E1DC0C94E2ECF3
:100A40000C94D4DA0C9409AD0C9497AA0C9422C09F
:100A50000C94C1D80C94F3BF0D9451720D942E36A2
:100A60000C94D9D80C946CDA0C9471D40C94E4DA0C
:100A70000C948AFD0C94967A0C94D3EC0C94A9D81F
:100A80000C9482F60C9432C80D940A0B0D949F8D31
:100A90000C941FED0C9440EC0C944ED20C944FD35C
:100AA0000C94AF7A0C945BCD0C94BDA60C94C3AFA0
:100AB0000D9425030D94D8050D9465570C94A9F455
:100AC0000C946BE20D948E580D9428030C94CCDAA0
:100AD0000D94AD060D9427030D94566E0C9479D8A1
:100AE0000C94F3CA0C945ABF0C94F15D0C94F0BEB4
:100AF0000C9472E20D94F5230C9483CC0C94A5F61F
:100B00000C9455AF0C94B77A0C94B9D80C94A5CF2B
:100B10000C945DC80C9436F10C94E6AE0C94EAAAE1
:100B20000D94E2360C94CD5D0C94B8F40D94C76B23
:100B30000C94CEAE0C94D8AE0D9426590D942A3652
:100B40000C94B35D0C94EDA70C94D35D0C9468F6F3
:100B50000D9402000C949CD30C944FE20C9464E22C
:100B60000D94740A0C94355D0D948A030C94FBC0AB
:100B70000C9449D90C9464DA0C9493D50C94A0C4C9
:100B80000C94AECB0C94075D0C9471AF0D94046D76
:100B90000C94D7C90C9427ED0C9431D90C9496ACD5
:100BA0000C94A5F90C9482C10D946E0B0C942BCC73
:100BB0000C9486A90C94EAFC0D94B4060C9406BF20
:100BC0000C948D660C9499E20C94DCBF0C94025D3D
:100BD0000D94FE510C94E1D80C9490AF0D94A66D39
:100BE0000C94DAD70C946FA50C942BBF0C941DDFDA
:100BF0000D9430040C9432F10C94B1D80D94816DA5
:100C00000C94E9BE0C940CC80C94E2F40C94C3F060
:100C10000D94760B0C94FAF40C94CCEC0C94C4DA8E
:100C20000C9456620D9421030C9411F70D943061CD
:100C30000C94B4DA0C9479D90C9485AF0C9480E2BE
:100C40000C94F7CF0C94C2F80C9488CB0C9446EC1F
:100C50000C94B95D0D943C570C949FF70C94E3678A
:100C60000D9440060C948ACA0C94CDAE0C94CCF42E
:100C70000C949CDA0D9422360D94A1040C949CFCE7
:100C80000C94BCF00C94535D0C9467AF0C94F3A8D7
:100C90000C9468A50C944FEE0D94DD360C94F5A6DB
:100CA0000C943FAF0C945DCA0C9490AA0D94D70895
:100CB0000C9499D80C947A620C94E5A90C94D6F40F
:100CC0000C9461D90D9457080C94495D0C949BA722
:100CD0000C94E55D0C944DF70C943AF90C9484CD8A
:100CE0000D94E6080C9462A50C9429FD0C94A1E2E5
:100CF00000000A0B02090C0D0E0807030401000096
:100D000000000000000000000000000000000000E3
:100D100000000000000000000000000012111000A0
:100D200000000000000000000000000000000000C3
:100D300000000000000000000000000000000000B3
:100D400000000000000001021020200808102040D0
:100D5000102040800201020108040201010204087F
:100D6000102040808040201008040201800402010D
:100D70008040201008040201080402010102040856
:100D80001020408001020408102040801008040850
:100D90008010204004408010204004800505050597
:100DA000070508080808020202020A0A08080404E3
:100DB0000404010101010101010103030303030311
:100DC0000303040707070C0C0C0C0C0C0C0C0202A0
:100DD000020206060606060606060B0B0B0B0B0B9D
:100DE0000B0B07070A0A0A0A0A0A05050504040488
:100DF0000808000020002300260029002C002F00F6
:100E00003200000100000301060109010000220078
:100E1000250028002B002E003100340002010000C4
:100E2000050108010B0100002100240027002A0011
:100E30002D003000330001010000040107010A0108
:100E4000027C3C3E5E2B3D3F2F5B5D3B2C2A225CAF
:100E500000C3D4D0DBD8E2D520DEE1E2D0E2DAD89C
:100E600020E120DFD5E7D0E2DDDED3DE20E1E2DEE7
:100E7000DBD000BFD5E7D0E2EC20DEE1E2D0DDDE62
:100E8000D2DBD5DDD000C0D5D3E3DBD8E0DED2DACB
:100E9000D020DFDEDBDED6D5DDD8EF00B7D0DCD565
:100EA000DDD8E2EC20DDD8E2EC00C0D5D3E3DBD81E
:100EB000E0DED2DAD020DFDEDBDED6D5DDD8EF0013
:100EC000B2E1E2D0D2D8E2EC20DDD8E2EC00C0D52D
:100ED000D3E3DBD8E0DED2DAD020DFDEDBDED6D52E
:100EE000DDD8EF00C3D4D0DBD8E2EC20DDD8E2ECD3
:100EF00000BDD520E3D4D0DBDEE1EC20DFE0DED89E
:100F0000D7D2D5E1E2D820E1E7D8E2EBD2D0DDD8E4
:100F1000D520D4D0DDDDEBE520DE20E2D5DCDFD549
:100F2000E0D0E2E3E0D500BEE8D8D1DAD000BED10F
:100F3000E9D5D520D2E0D5DCEF00B2EBDADB00DE7C
:100F4000D6D8D4D0DDD8EF00C0D5D6D8DC00B2DEFC
:100F5000D7D2E0D0E200BFDED4DED6D4D8E2D52CA2
:100F600020DFDED62E00BDD0D6D0E2EC20D4DBEFE1
:100F700020D7D0D2D5E0E82E00BDD0D6D0E2EC20EC
:100F8000D4DBEF20D2DED7D2E0D0E2D000BDD0D685
:100F9000D0E2EC20D4DBEF20DDD0E7D0DBD000BD09
:100FA000D0D6D0E2EC20D4DBEF20DFE0DED4DEDBF5
:100FB000D62E00BDD0D6D0E2EC20D4DBEF20DFDE91
:100FC000D4E2D2D5E0D62E0041DFDFD0E0D0E2DDA2
:100FD0002E20E1D1E0DEE100CFD7EBDA00BDD0E199
:100FE000E2E0DED8E2EC20D7D0D7DEE000CDDAE0D8
:100FF000D0DD20E1D5E0D8D80041D2E2DED2EBE06E
:10100000D0D2DD2E00BFDED4D4D5E0D6DAD000B207
:10101000D5E0E1D8EF00D2D5DDE2D8DBEFE2DEE0CB
:1010200000C1D2D5E2DED4D8DED400BFD5E0D5DC15
:101030002E20DDD020302E3120DCDC00BFD5E0D5E5
:10104000DCD5E1E22E20DDD0203120DCDC00BFD574
:10105000E0D5DCD5E1E22E20DDD020313020DCDC13
:1010600000BFD5E0D5DCD5E1E22E20EDDAE1E2E00B
:10107000E3D42E00BFD5E0D5DCD5E1E2D8E2EC2008
:10108000DEE1EC205A00BFD5E0D5DCD5E1E2D8E2C4
:10109000EC20DEE1EC205900BFD5E0D5DCD5E1E263
:1010A000D8E2EC20DEE1EC205800BFDED4E2D2D55D
:1010B000E0D4D8E2EC00BFDED2E2DEE0D8E2EC2001
:1010C000DFDEDFEBE2DAE300B8D7DCD5DDD8E2EC37
:1010D00020E1DADEE0DEE1E2EC00B7D0DCD5DDD8FD
:1010E000E2EC20DDD8E2EC00BEE1E2D0DDDED2D8D9
:1010F000E2EC00C3E1E2D0DDDED2D8E2EC20DFD0CA
:10110000E3D7E300B2DED7DED1DDDED2D8E2EC00F9
:10111000B8D7DCD5DDD8E2EC20E2D5DCDFD5E0D0F5
:10112000E22E00BFD5E0D5DCD5E1E2D8E2EC20DE4E
:10113000E1D800CDDBD5DAE2E0DED4D22DDBD82059
:10114000B2BABB00CDDBD5DAE2E0DED4D22DDBD8FB
:1011500020B2BABB00BDD0E1E2E0DED9DAD800B4FB
:10116000DEDCD0E8DDEFEF00B2EBE0DED2DD2E20FA
:10117000DEE1DDDED2D0DDD8D500C3E1E2D0DDDEB8
:10118000D2D8E2EC20DDD8E2EC00C3D4D0DBD8E248
:10119000EC20DDD8E2EC00BFD5E7D0E2D0E2EC20D5
:1011A000E120534400C3E1E2D0DD2E20DAD0E0E2BA
:1011B000DEE7DAE320534400B8D4D5E220E3D4D00C
:1011C000DBD5DDD8D52C20DDD520D2EBDADBEEE780
:1011D000D0D9E2D520DFE0D8DDE2D5E00041DFDF85
:1011E000D0E0D0E2DDEBD920E1D1E0DEE100B220B9
:1011F000E1DBE3E7D0D520DFE0DED4DEDBD6D5DDF2
:10120000D8EF20D7D0D2DED4E1DAD8D520D7DDD0C0
:10121000E7D5DDD8EF20D1E3D4E3E220D2DEE1E16F
:10122000E2D0DDDED2DBD5DDEB00B2DDD8DCD0DD17
:10123000D8D52100B2DEE1E1E2D0DD2DE2EC20D70D
:10124000DDD0E7D5DDD8EF3F0041DFDFD0E0D0E2F1
:10125000DDEBD920E1D1E0DEE100BDD0E1DBD0D68D
:10126000D42E20576974626F7820322120B5E1DBDB
:10127000D820DCDED6DDDE20DFE0D5D4E1E2D0D23E
:10128000D8E2EC2C20E2DE20DCDED6DDDE20D82029
:10129000E1D4D5DBD0E2EC00BFDEDCDDD8E2D52C3A
:1012A00020E7E2DE20EDDAE1E2E0E3D4D5E020D889
:1012B00020DEE1DDDED2D0DDD8D520D4DEDBD6DD08
:1012C000EB20D1EBE2EC20E7D8E1E2EBDCD800BF89
:1012D000E0D8E1E2E3DFD8DC20DA20DAD0DBD8D1D5
:1012E000E0DED2DAD520D4D0E2E7D8DAD020E1208F
:1012F000DDD0E1E2E0DED9DAD8206F66667365748E
:1013000000B4DED1E0DE20DFDED6D0DBDED2D0E2FC
:10131000EC2120BDD0E7DDD5DC20E120DFDED4D319
:10132000DEE2DED2DAD820DFE0D8DDE2D5E0D000A0
:10133000C0E3E1E1DAD8D900B2EBD1D5E0D8E2D50B
:1013400020EFD7EBDA00BCD0E1E2D5E000BADEDD79
:10135000E2E0DEDBEC20E1D5E0D8D800B8D7DCD580
:10136000DDD8E2EC20E1DADEE0DEE1E2EC00B2E141
:10137000D520DFE0D0D2D8DBECDDDE3F00B7D0D225
:10138000D5E0E8D5DDDE00BDD8E2EC20D7D0D3E053
:10139000E3D6D0D5E2E1EF00C3E1E2D0DDDED2D882
:1013A000E2EC20DDD8E2EC00B2E1E2D0D2ECE2D512
:1013B00020DDD8E2EC20D820DDD0D6DCD8E2D52064
:1013C000DADDDEDFDAE320D4DBEF20D5D520D7D09D
:1013D000D3E0E3D7DAD800B8DDE1E2E0E3DAE6D83B
:1013E000D800B2EBD1E0DEE100C3D4D0DBD8E2EC30
:1013F00020DDD8E2EC00BDD0D6DCD8E2D520D82064
:10140000DFDED4DED6D4D8E2D520D2EBDFE3E1DADA
:10141000D020DDD8E2D820D4DBEF20D5D520E3D40E
:10142000D0DBD5DDD8EF00B8DDE1E2E0E3DAE6D8E5
:10143000D800C2D5DCDFD5E0D0E2E3E0D000C2D5F1
:10144000DCDFD5E0D0E2E3E0D000BEE1E2D0DDDEDB
:10145000D2DAD000B7D0DCD5DDD8E2EC20DDD8E29E
:10146000EC00BDD0E7D0E2EC20DFE0DEE6D5E1E144
:101470003F00B7D0DCD5DDD8E2EC20DDD8E2EC00CF
:10148000BEE1E2D0DDDED2D8E2EC00C1DDD8DCD8AE
:10149000E2D520D4D5E2D0DBEC20E120DEE1DDDEB8
:1014A000D2D0DDD8EF00BFD5E7D0E2EC20D7D0D244
:1014B000D5E0E8D5DDD000BEE1E2D0DDDED2DAD085
:1014C00000BDD020DFD0E3D7D500BFD0E3D7D00018
:1014D000BFD5E7D0E2EC00C2D5DCDFD5E0D0E2E357
:1014E000E0D000B2E1D520DFE0D0D2D8DBECDDDE09
:1014F0003F00B7D0D2D5E0E8D5DDDE00BDD0E1E2D7
:10150000E0DED8E2EC20D7D0D7DEE000BDD0D6DCDC
:10151000D8E2D520D820DEE2E0D5D3E3DBD8E0E383
:10152000D9E2D520D7DDD0E7D5DDD8D520E2D0DA95
:101530002C20E7E2DED1EB20DDD0E1D0D4DAD020E0
:10154000DAD0E1D0DBD0E1EC20E1E2DEDBD8DAD0AA
:1015500000B8DDE1E2E0E3DAE6D8D800C0D0E1E7A8
:10156000D5E220DFDBDEE1DADEE1E2D820DEE1DD1C
:10157000DED2D0DDD8EF00BDD0E1E2E0DED8E2EC93
:1015800020D7D0D7DEE000C0D5D3E3DBD8E0DED271
:10159000DAD020DFDEDBDED6D5DDD8EF00BDD0E14E
:1015A000E2E0DED8E2EC20D7D0D7DEE000C2D5DC26
:1015B000DFD5E0D0E2E3E0D000BDD0E7D0E2EC2020
:1015C000DFE0DEE6D5E1E13F00BDD0E1E2E0DED8DC
:1015D000E2EC20D7D0D7DEE0007777772E62712E4D
:1015E000636F6D20737570706F72742E3364406218
:1015F000712E636F6D00BFDED4D4D5E0D6DAD00093
:10160000B2D5E0E1D8EF00C2D5DCDFD5E0D0E2E32F
:10161000E0D000C2D5DCDFD5E0D0E2E3E0D000CD01
:10162000DAE1E2E0E3D4D5E0202F203120DCDC0059
:10163000CDDAE1E2E0E3D4D5E0202F20302C3120D8
:10164000DCDC00BEE1EC205A202F20313020DCDC35
:1016500000BEE1EC205A202F203120DCDC00BEE16E
:10166000EC205A202F20302C3120DCDC00BEE1ECB5
:101670002059202F20313020DCDC00BEE1EC205945
:10168000202F203120DCDC00BEE1EC2059202F206F
:10169000302C3120DCDC00BEE1EC2058202F203142
:1016A0003020DCDC00BEE1EC2058202F203120DC93
:1016B000DC00BEE1EC2058202F20302C3120DCDC77
:1016C00000B2EBD1D5E0D8E2D520DEDFE6D8EE00DF
:1016D000CDDAE1E2E0E3D42E202F20BFD5E0D5DC47
:1016E0002E20DCDC00B2EBD1D5E0D8E2D520DEDF65
:1016F000E6D8EE00BEE1EC205A202F20BFD5E0D581
:10170000DCD5E1E22E20DCDC00B2EBD1D5E0D8E282
:10171000D520DEDFE6D8EE00BEE1EC2059202F20F8
:10172000BFD5E0D5DCD5E1E22E20DCDC00B2EBD188
:10173000D5E0D8E2D520DEDFE6D8EE00BEE1EC2031
:1017400058202F20BFD5E0D5DCD5E1E22E20DCDC0F
:1017500000C2D5DCDFD5E0D0E2E3E0D000C0D0D7D6
:10176000DED3E0D5E2EC20EDDAE1E2E0E3D4D5E04F
:101770003F00CDDAE1E2E0E3D42E202F20DFD5E0F8
:10178000D5DC2E20DCDC00B2EBD1D5E0D8E2D520D0
:10179000DEDFE6D8EE00BFD5E0D5DCD5E1E2D8E269
:1017A000EC20DEE1D800BFDED7D8E6D8EF20DDD5CB
:1017B00020DEDFE0D5D4D5DBD5DDD02C20D2D5E0BE
:1017C000DDD8E2D5E1EC20D220DDD0E7D0DBDE2091
:1017D000D4DBEF20DFE0DED4DEDBD6D5DDD8EF00D2
:1017E000BFD5E0D5D4D2D8DDE3E2EC20DEE1D800ED
:1017F000BDD0E1E2E0DED9DAD800C0D5D3E3DBD852
:10180000E0DED2DAD020DFDEDBDED6D5DDD8EF00B9
:10181000B4DEDCD0E8DDEFEF00C2D5DCDFD5E0D010
:10182000E2E3E0D000BDD0E7D0E2EC20DFE0DEE68E
:10183000D5E1E13F00B4DEDCD0E8DDEFEF00B2E15E
:10184000D520DFE0D0D2D8DBECDDDE3F00B7D0D250
:10185000D5E0E8D5DDDE00BDD0E1E2E0D0D8D2D0E1
:10186000E2EC20E2E0D5E2ECEE20E2DEE7DAE32093
:10187000D4DE20DFDEEFD2DBD5DDD8EF20DAE0D01A
:10188000E1DDDED3DE20E6D2D5E2D000B2EBE0DE51
:10189000D2DDEFE2EC20DEE1DDDED2D0DDD8D50016
:1018A000BDD0E1E2E0D0D8D2D0E2EC20D2E2DEE05E
:1018B000E3EE20E2DEE7DAE320D4DE20DFDEEFD263
:1018C000DBD5DDD8EF20DAE0D0E1DDDED3DE20E6C7
:1018D000D2D5E2D000B2EBE0DED2DDEFE2EC20DEEA
:1018E000E1DDDED2D0DDD8D500BDD0E1E2E0D0D858
:1018F000D2D0E2EC20DFD5E0D2E3EE20E2DEE7DA80
:10190000E320D4DE20DFDEEFD2DBD5DDD8EF20DA36
:10191000E0D0E1DDDED3DE20E6D2D5E2D000B2EBCE
:10192000E0DED2DDEFE2EC20DEE1DDDED2D0DDD89C
:10193000D500C0D5D3E3DBD8E0DED2DAD020DFDEBD
:10194000DBDED6D5DDD8EF00B4DEDCD0E8DDEFEFAE
:1019500000C2D5DCDFD5E0D0E2E3E0D000BDD0E7C7
:10196000D0E2EC20DFE0DEE6D5E1E13F00B2EBE0E3
:10197000DED2DDEFE2EC20DEE1DDDED2D0DDD8D557
:1019800000B2E1D520DFE0D0D2D8DBECDDDE3F00D5
:10199000B7D0D2D5E0E8D5DDDE00BDD8E2EC20D767
:1019A000D0D3E0E3D6D0D5E2E1EF00C3E1E2D0DD71
:1019B000DED2D8E2EC20DDD8E2EC00B2E1E2D0D217
:1019C000ECE2D520DDD8E2EC20D820DDD0D6DCD882
:1019D000E2D520DADDDEDFDAE320D4DBEF20D5D577
:1019E00020D7D0D3E0E3D7DAD800B8DDE1E2E0E3F6
:1019F000DAE6D8D800C2D5DCDFD5E0D0E2E3E0D02B
:101A000000C2D5DCDFD5E0D0E2E3E0D000C0D5D322
:101A1000E3DBD8E0DED2DAD020DFDEDBDED6D5DDD8
:101A2000D8EF00B2E1E2D0D2D8E2EC20DDD8E2EC8F
:101A300000BDD0E7D0E2EC20DFE0DEE6D5E1E13F1B
:101A400000C3E1E2D0DDDED2D8E2EC20DDD8E2EC6A
:101A500000B2E1D520DFE0D0D2D8DBECDDDE3F0004
:101A6000B7D0D2D5E0E8D5DDDE00B2EBD1E0DEE1E3
:101A700000C3D4D0DBD8E2EC20DDD8E2EC00BDD04E
:101A8000D6DCD8E2D520D820DFDED4DED6D4D8E22A
:101A9000D520D2EBDFE3E1DAD020DDD8E2D820D4C4
:101AA000DBEF20D5D520E3D4D0DBD5DDD8EF00B8EF
:101AB000DDE1E2E0E3DAE6D8D800C2D5DCDFD5E04C
:101AC000D0E2E3E0D000C2D5DCDFD5E0D0E2E3E055
:101AD000D000C0D5D3E3DBD8E0DED2DAD020DFDE21
:101AE000DBDED6D5DDD8EF00C3D4D0DBD8E2EC20E6
:101AF000DDD8E2EC00BDD0E7D0E2EC20DFE0DEE6AE
:101B0000D5E1E13F00C3D4D0DBD8E2EC20DDD8E260
:101B1000EC00BFE0D5D4EBD4E3E9D0EF20DFD0DF99
:101B2000DAD000B2DED7D2E0D0E220D220DCD5DDA0
:101B3000EE00BFD5E7D0E2D0E2EC20D0E0E5D8D28D
:101B40003F00BFD5E7D0E2D0E2EC20E120534400D3
:101B5000B7D0D1DBDEDAD8E0DED22E00C3D4D5E0B8
:101B6000D6D8D2D0E2EC20D4DBEF20E0D0D7D1DB46
:101B7000DEDA2E20DFE0D8DDE2D5E0D00041D2D0A1
:101B8000E0D8D9DD2E20DEE1E2D0DD2E20D2DADB76
:101B90002E00546120626F727420726573746572D6
:101BA0006E61206672E56E20706C617474616E0007
:101BB0005574736B726966742073746F70706164AE
:101BC000004A7573746572617220706F736974690D
:101BD0006F6E656E00427974612066696C616D6537
:101BE0006E74004A7573746572617220706F7369E8
:101BF00074696F6E656E0053E474746120696E20C1
:101C000066696C616D656E74004A757374657261A6
:101C10007220706F736974696F6E656E0054612015
:101C2000626F72742066696C616D656E74004665E2
:101C30006C20692074656D702E61766CE4736E2E75
:101C40000046656C00546F74616C207469640041D7
:101C50007600696E616B746976004CE467650054C8
:101C6000696C6C62616B610056E46E746100547261
:101C700079636B206F6368206176736C75746100A3
:101C8000547279636B206F636820E574657267E551
:101C900000547279636B206F63682062F6726A6128
:101CA00000547279636B206F63682062656B72E425
:101CB00066746100547279636B206F63682062659B
:101CC0006B72E46674610048E5726420E5746572C5
:101CD0007374E46C6C2E00537072E56B004A75737C
:101CE000742E2066F672736B6A75742E00536BE463
:101CF000726D736572696500536AE46C766E69761D
:101D0000656C6C65722E00537570706F727400563E
:101D1000657273696F6E00466CE46B74004C797386
:101D200064696F6400466C7974746120302C3120D2
:101D30006D6D00466C797474612031206D6D0046C4
:101D40006C79747461203130206D6D00466C79744B
:101D5000746120657874727564657200466C79747C
:101D60007461205A2D6178656C00466C79747461D9
:101D700020592D6178656C00466C79747461205827
:101D80002D6178656C0042656B72E4667461004693
:101D9000F67273F66B206967656E00C46E647261DB
:101DA00020686173746967686574004279746120A2
:101DB00066696C616D656E740053746F707061005C
:101DC000506175736100C5746572757070746100DF
:101DD000C46E6472612074656D7065726174757231
:101DE00000466C797474612061786C6172004D6F8B
:101DF000746F726572204156004D6F746F72657218
:101E00002050C500496E7374E46C6C6E696E676136
:101E100072005374617274004E6976656C6C657201
:101E2000612062796767706C2E0053E474746120DE
:101E3000696E2066696C616D656E74005461206224
:101E40006F72742066696C616D656E7400536B729D
:101E50006976207574206672E56E2053440053E461
:101E6000747420696E2053442D6B6F727465740016
:101E7000526164657261722C207374E46E6720692C
:101E80006E746520617620736B7269766172656E1F
:101E90000048E5726420E57465727374E46C6C6EDE
:101EA000696E67004F6D20647520666F727473E40D
:101EB00074746572206B6F6D6D65722066616272FD
:101EC000696B73696E7374E46C6C6E2E206174744C
:101ED00020E57465727374E46C6C61730056617212
:101EE0006E696E672100C57465727374E46C6C6111
:101EF0002076E47264656E3F0048E5726420E57404
:101F000065727374E46C6C6E696E67004861207270
:101F10006F6C696774206D65642064696E20576911
:101F200074626F78203221204F6D206475206B61C0
:101F30006E2066F672657374E46C6C612064696788
:101F400020646574206B616E2064752067F6726191
:101F5000206465742E004B6F6D206968E567206111
:101F600074742068E56C6C612065787472756465C2
:101F7000726E206F63682062796767706C61747439
:101F8000616E2066726961206672E56E20736D7500
:101F900074730056692062F6726A6172206D65641E
:101FA00020617474206B616C696272657261207368
:101FB000656E736F726E2067656E6F6D20617474ED
:101FC000206A7573746572612066F672736B6A7548
:101FD000746E696E67656E0056E46C6B6F6D6D654F
:101FE0006E21204CE574206F73732066F672626573
:101FF0007265646120736B7269766172656E0053FD
:1020000076656E736B610056E46C6A20737072E5DE
:102010006B004775696465004B6F6E74726F6C6C12
:10202000736572696500C46E64726120686173745F
:10203000696768657400C47220616C6C74206F6B92
:102040003F004B6C6172004C616464617220666990
:102050006C616D656E740053E474746120696E2068
:1020600066696C616D656E740046F67220696E205B
:1020700066696C616D656E746574206F6368207449
:102080007279636B2070E5206B6E617070656E20F5
:1020900066F67220617474206C616464612064650A
:1020A0007400496E737472756B74696F6E6572003B
:1020B0004D6174617220757400546120626F727496
:1020C0002066696C616D656E74004B6C69636B6151
:1020D000206F63682076E46E74612074696C6C73A1
:1020E0002066696C616D656E746574206D617461E4
:1020F000732075742066F6722061747420746120F8
:10210000626F72742064657400496E737472756BCB
:1021100074696F6E65720054656D70657261747577
:10212000720054656D7065726174757200506175EE
:1021300073617200427974612066696C616D656ECD
:1021400074005374617274612070726F636573738D
:10215000656E3F00427974612066696C616D656EE1
:10216000740053746F70706100546120626F7274F8
:102170002064656C656E206672E56E206279676723
:10218000706C617474616E005574736B72696674FF
:10219000656E20E472206B6C617200506175736132
:1021A00072004920706175736CE467650050617559
:1021B0007300536B72697665722075740054656D97
:1021C0007065726174757200C47220616C6C7420E9
:1021D0006F6B3F004B6C6172004A7573746572617E
:1021E0002066F672736B6A75746E696E67004B6C6D
:1021F00069636B61206F6368206A757374657261CF
:102200002076E4726465742074696C6C73206D755B
:102210006E737479636B65742076696472F67220EC
:1022200062796767706C617474616E00496E737473
:1022300072756B74696F6E657200426572E46B6EE5
:1022400061722062796767706C617474616E73206B
:10225000706C616E004A7573746572612066F67207
:10226000736B6A75746E696E67004A757374657214
:102270006172206CE46765004A7573746572612051
:1022800066F672736B6A75746E696E670054656D7D
:10229000706572617475720053746172746120703C
:1022A000726F63657373656E3F004A757374657210
:1022B000612066F672736B6A75746E696E6700777B
:1022C00077772E62712E636F6D20737570706F72E9
:1022D000742E33642E73764062712E636F6D0053DB
:1022E0007570706F72740056657273696F6E00540A
:1022F000656D706572617475720054656D7065729C
:10230000617475720045787472756465722F31203E
:102310006D6D0045787472756465722F302C3120B4
:102320006D6D005A2D6178656C2F3130206D6D0018
:102330005A2D6178656C2F31206D6D005A2D6178B2
:10234000656C2F302C31206D6D00592D6178656CD6
:102350002F3130206D6D00592D6178656C2F312043
:102360006D6D00592D6178656C2F302C31206D6DAD
:1023700000582D6178656C2F3130206D6D00582D1F
:102380006178656C2F31206D6D00582D6178656C1A
:102390002F302C31206D6D0056E46C6A20616C7416
:1023A00065726E61746976004578747275646572E1
:1023B0002F466C79747461206D6D0056E46C6A2050
:1023C000616C7465726E61746976005A2D6178650E
:1023D0006C2F466C79747461206D6D0056E46C6AE4
:1023E00020616C7465726E6174697600592D617834
:1023F000656C2F466C79747461206D6D0056E46CC9
:102400006A20616C7465726E6174697600582D6122
:1024100078656C2F466C79747461206D6D0054651D
:102420006D706572617475720056E4726D6120752D
:1024300070702065787472756465723F00457874B9
:1024400072756465722F466C79747461206D6D00CD
:1024500056E46C6A20616C7465726E617469760012
:10246000466C797474612061786C617200506F738E
:102470006974696F6E656E20E47220696E74652000
:102480006BE46E642C2067F67220656E206F6D73AE
:10249000746172742066F6722061747420666F72C3
:1024A0007473E474746100466C79747461206178AB
:1024B0006C617200496E7374E46C6C6E696E676176
:1024C00072004A75737465726172206CE46765000E
:1024D00053746172740054656D70657261747572C5
:1024E000005374617274612070726F6365737365F9
:1024F0006E3F00537461727400C47220616C6C741E
:10250000206F6B3F004B6C6172004A75737465728B
:10251000612064656E20747265646A652070756EF2
:102520006B74656E2074696C6C732064656E2072C8
:10253000F66461206C616D70616E2074E46E64738A
:10254000004E6976656C6C657261206279676770B0
:102550006C61747461004A7573746572612064659E
:102560006E20616E6472612070756E6B74656E2092
:1025700074696C6C732064656E2072F66461206C03
:10258000616D70616E2074E46E6473004E697665EF
:102590006C6C6572612062796767706C61747461DC
:1025A000004A7573746572612064656E2066F67208
:1025B0007374612070756E6B74656E2074696C6CD9
:1025C000732064656E2072F66461206C616D7061C9
:1025D0006E2074E46E6473004E6976656C6C65728F
:1025E000612062796767706C61747461004A757309
:1025F0007465726172206CE4676500537461727473
:102600000054656D70657261747572005374617207
:1026100074612070726F63657373656E3F004E69FD
:1026200076656C6C6572612062796767706C617445
:10263000746100C47220616C6C74206F6B3F004B3E
:102640006C6172004C61646461722066696C616DDA
:10265000656E740053E474746120696E2066696C61
:10266000616D656E740046F67220696E2066696C55
:10267000616D656E746574206F6368207472796330
:102680006B2070E5206B6E617070656E2066F6726F
:1026900020617474206D617461206672616D2064C4
:1026A000657400496E737472756B74696F6E6572D0
:1026B0000054656D706572617475720054656D705B
:1026C000657261747572004A757374657261722007
:1026D000706F736974696F6E656E0053E474746132
:1026E00020696E2066696C616D656E74005374615B
:1026F0007274612070726F63657373656E3F00530F
:10270000E474746120696E2066696C616D656E7435
:1027100000C47220616C6C74206F6B3F004B6C6165
:1027200072004D6174617220757400546120626F93
:1027300072742066696C616D656E74004B6C6963C0
:102740006B61206F63682076E46E74612074696C3D
:102750006C732066696C616D656E746574206D6163
:102760007461732075742066F6722061747420742D
:102770006120626F72742064657400496E737472B4
:10278000756B74696F6E65720054656D706572610A
:102790007475720054656D70657261747572004A6B
:1027A0007573746572617220706F736974696F6E8E
:1027B000656E00546120626F72742066696C616D91
:1027C000656E74005374617274612070726F63651A
:1027D0007373656E3F00546120626F727420666986
:1027E0006C616D656E740046F6726567E5656E64D2
:1027F00065206D6170700054696C6C62616B612062
:1028000074696C6C206D656E796E00536B726976BD
:10281000612075742066696C3F00536B7269766144
:10282000207574206672E56E20534400426C6F631D
:102830006B657261640048E56C6C206E656474724F
:1028400079636B742066F67220617474206CE57392
:10285000612075707020736B7269766172656E00AD
:102860004EF66473746F707020E47220616B74694B
:1028700076005269746972617265206920726573AD
:10288000696475692064616C207069616E6F0053C2
:1028900074616D706120617272657374617461003E
:1028A0005265676F6C617A2E20706F73697A696FF9
:1028B0006E650043616D62696172652066696C6175
:1028C0006D656E746F005265676F6C617A2E207053
:1028D0006F73697A696F6E6500496E7365726972AC
:1028E000652066696C616D656E746F005265676F17
:1028F0006C617A2E20706F73697A696F6E65005211
:10290000697469726172652066696C616D656E7467
:102910006F004572726F7265206469206C65747413
:102920007572612064656C6C612074656D70657290
:102930006174757261004572726F72650054656DE5
:10294000706F20746F74616C65004F666600696E0D
:10295000617474697661004D6F64616C6974E00044
:10296000546F726E6100417474656E646572652C9B
:1029700020707265676F005072656D6920706572B6
:10298000207465726D696E617265005072656D6963
:102990002070657220746F726E617265005072658E
:1029A0006D692070657220696E697A696165005091
:1029B00072656D692070657220636F6E74696E75E3
:1029C000617265005072656D692070657220636F79
:1029D0006E6665726D617265004861726420526551
:1029E000736574004C696E677561005265676F6C42
:1029F000617265206F666673657400536368657203
:102A00006D6F207365726965004175746F6C6976CE
:102A1000656C6C616D2E00537570706F72746F0011
:102A200056657273696F6E650056656E74696C6188
:102A3000746F7265004C65640053706F73746172DB
:102A40006520302C316D6D0053706F737461726549
:102A500020316D6D0053706F737461726520313079
:102A60006D6D0053706F737461726520657374725D
:102A700075736F72650053706F7374617265206156
:102A8000737365205A0053706F73746172652061AF
:102A900073736520590053706F73746172652061A0
:102AA000737365205800436F6E6665726D61726561
:102AB00000526970726F766172650043616D626980
:102AC0006172652076656C6F636974E00043616DC7
:102AD00062696172652066696C616D656E746F0014
:102AE0004665726D617265004D657474657265202E
:102AF000696E2070617573610052696174746163FD
:102B0000636172650043616D62696172652074651D
:102B10006D70657261742E0053706F7374617265AD
:102B20002061737369004D6F746F7269204F464660
:102B3000004D6F746F7269204F4E005265676F6C65
:102B4000617A696F6E6900486F6D65004C697665E2
:102B50006C6C617265206261736500496E736572A9
:102B60006972652066696C616D656E746F0052698B
:102B70007469726172652066696C616D656E746FEF
:102B8000005374616D70617265206461205344006C
:102B9000496E736572697363692073636865646104
:102BA0002053440043616E63656C6C616E646F2CEE
:102BB000206E6F6E20737065676E657265206C6144
:102BC000207374616D70616E746500486172642079
:102BD000526573657400536520736920636F6E746A
:102BE000696E75612C2076657272616E6E6F2072EF
:102BF000697072697374696E6174692069207661A5
:102C00006C6F7269206469206661626272696361D7
:102C100000417474656E7A696F6E65210052697047
:102C200072697374696E6172652076616C6F726926
:102C30003F004861726420526573657400476F6499
:102C4000697469206C612074756120576974626FC2
:102C50007820322120536520726965736369206191
:102C600020696D6D6167696E61726C6F2C20707583
:102C70006F69206661726C6F005269636F72646184
:102C8000206469206D616E74656E657265206C27C5
:102C90006573747275736F72652065206C61206254
:102CA000617365206C696265726920646120726578
:102CB000736964756900436F6D696E6369616D6FF7
:102CC0002063616C696272616E646F20696C20734D
:102CD000656E736F72652065207265676F6C616EDB
:102CE000646F206C276F66667365740042656E764C
:102CF000656E7574692120436F6D696E6369616DDE
:102D00006F206120707265706172617265206C6104
:102D1000207374616D70616E7465004974616C69D3
:102D2000616E6F0053656C657A696F6E61206C69C6
:102D30006E6775610057697A61726400436F6E74E3
:102D4000726F6C6C6F2073657269650043616D62B0
:102D5000696172652076656C6F636974E000547513
:102D600074746F2062656E653F005465726D696EA4
:102D700061746F004361726963616D656E746F2089
:102D800064656C2066696C616D656E746F20696E38
:102D900020636F72736F00496E7365726973636944
:102DA0002066696C616D656E746F00496E73657243
:102DB0006973636920696C2066696C616D656E7406
:102DC0006F2065207072656D6920696C2070756C6C
:102DD00073616E74652070657220636172696361EE
:102DE000726C6F0049737472757A696F6E69004511
:102DF0007370756C73696F6E650052697469726186
:102E000072652066696C616D656E746F00507265E5
:102E10006D69206520617474656E6469206C276536
:102E20007370756C73696F6E652064656C2066697C
:102E30006C616D656E746F20706572207269746963
:102E40007261726C6F0049737472757A696F6E6922
:102E50000054656D70657261747572610054656DC2
:102E600070657261747572610050617573610043C1
:102E7000616D62696172652066696C616D656E7411
:102E80006F00417676696172652070726F63657359
:102E9000736F3F0043616D62696172652066696CA2
:102EA000616D656E746F004665726D61726500528A
:102EB000697469726120696C2070657A7A6F206428
:102EC000616C6C612062617365005374616D706147
:102ED000207465726D696E61746100506175736113
:102EE00000496E20706175736100506175736100F7
:102EF0005374616D70610054656D706572617475B5
:102F0000726100547574746F2062656E653F005481
:102F100065726D696E61746F005265676F6C617286
:102F200065206F6666736574005072656D69206513
:102F3000206D6F64696669636120696C2076616CDD
:102F40006F72652066696E6368E9206C2775676536
:102F50006C6C6F206E6F6E20746F636361206C61A8
:102F600020626173650049737472757A696F6E6966
:102F70000043616C636F6C6F2064656C20706961E5
:102F80006E6F206469206261736520696E20636FD3
:102F900072736F005265676F6C617265206F666651
:102FA000736574005265676F6C617A696F6E652036
:102FB000706F73697A696F6E6520696E20636F72D6
:102FC000736F005265676F6C617265206F66667320
:102FD00065740054656D706572617475726100414D
:102FE0007676696172652070726F636573736F3F87
:102FF000005265676F6C617265206F6666736574F9
:10300000007777772E62712E636F6D207375707005
:103010006F72742E33642E69744062712E636F6D0B
:1030200000537570706F72746F0056657273696FBC
:103030006E650054656D70657261747572610054DF
:10304000656D706572617475726100457374727537
:10305000736F7265202F2031206D6D00457374727F
:1030600075736F7265202F20302C31206D6D0041FB
:10307000737365205A202F203130206D6D0041730D
:103080007365205A202F2031206D6D0041737365C8
:10309000205A202F20302C31206D6D004173736534
:1030A0002059202F203130206D6D00417373652031
:1030B00059202F2031206D6D0041737365205920F8
:1030C0002F20302C31206D6D004173736520582006
:1030D0002F203130206D6D00417373652058202FF3
:1030E0002031206D6D00417373652058202F2030F2
:1030F0002C31206D6D0053656C657A696F6E6120AF
:103100006F707A696F6E65004573747275732E2FD8
:1031100053706F7374617265206D6D0053656C65DB
:103120007A696F6E61206F707A696F6E65004173A6
:103130007365205A202F2053706F7374617265205D
:103140006D6D0053656C657A696F6E61206F707A82
:10315000696F6E6500417373652059202F2053708D
:103160006F7374617265206D6D0053656C657A696B
:103170006F6E61206F707A696F6E65004173736561
:103180002058202F2053706F7374617265206D6D0D
:103190000054656D70657261747572610052697377
:1031A00063616C64617265206573747275732E3F20
:1031B000004573747275732E2F53706F7374617240
:1031C00065206D6D0053656C657A696F6E61206F67
:1031D000707A696F6E650053706F737461206173EC
:1031E000736900506F73697A696F6E652073636FDE
:1031F0006E6F7363697574612C20746F726E6120D9
:103200006120686F6D652070657220636F6E7469F0
:103210006E756172650053706F73746172652061C1
:10322000737369005265676F6C617A696F6E6900CC
:103230005265676F6C617A696F6E6520706F736934
:103240007A696F6E6520696E20636F72736F0048D4
:103250006F6D650054656D706572617475726100A3
:10326000417676696172652070726F636573736F02
:103270003F00486F6D6500547574746F2062656E11
:10328000653F005465726D696E61746F00526567C9
:103290006F6C6120696C207465727A6F2070756E36
:1032A000746F2066696E6F206120636865206E6FA1
:1032B0006E20736920616363656E6465206C6120B4
:1032C0006C75636520726F737361004C6976656C11
:1032D0006C6172652062617365005265676F6C6135
:1032E00020696C207365636F6E646F2070756E74F7
:1032F0006F2066696E6F206120636865206E6F6E57
:1033000020736920616363656E6465206C61206C65
:1033100075636520726F737361004C6976656C6CC0
:103320006172652062617365005265676F6C612030
:10333000696C207072696D6F2070756E746F206695
:10334000696E6F206120636865206E6F6E207369FF
:1033500020616363656E6465206C61206C756365D4
:1033600020726F737361004C6976656C6C61726575
:103370002062617365005265676F6C617A696F6E78
:103380006520706F73697A696F6E6520696E20635E
:103390006F72736F00486F6D650054656D70657274
:1033A0006174757261004176766961726520707230
:1033B0006F636573736F3F004C6976656C6C617207
:1033C00065206261736500547574746F2062656E68
:1033D000653F005465726D696E61746F0043617280
:1033E0006963616D656E746F2064656C2066696CDD
:1033F000616D656E746F20696E20636F72736F000C
:10340000496E7365726972652066696C616D656E7F
:10341000746F00496E7365726973636920696C200B
:1034200066696C616D656E746F2065207072656D84
:103430006920696C2070756C73616E7465207065AD
:103440007220636172696361726C6F004973747298
:10345000757A696F6E690054656D70657261747517
:1034600072610054656D70657261747572610052AD
:1034700065676F6C617A2E20706F73697A696F6E01
:103480006500496E7365726972652066696C616D6D
:10349000656E746F00417676696172652070726F37
:1034A000636573736F3F00496E736572697265205F
:1034B00066696C616D656E746F00547574746F200D
:1034C00062656E653F005465726D696E61746F0070
:1034D000457370756C73696F6E65005269746972BB
:1034E0006172652066696C616D656E746F00507203
:1034F000656D69206520617474656E6469206C2750
:10350000657370756C73696F6E652064656C206699
:10351000696C616D656E746F20706572207269747C
:10352000697261726C6F0049737472757A696F6E3B
:10353000690054656D7065726174757261005465DF
:103540006D7065726174757261005265676F6C6150
:103550007A2E20706F73697A696F6E650052697494
:1035600069726172652066696C616D656E746F0069
:10357000417676696172652070726F636573736FEF
:103580003F0052697469726172652066696C616D91
:10359000656E746F0043617274656C6C612070724B
:1035A00065636564656E746500546F726E61726503
:1035B00020616C206D656E75005374616D70617271
:1035C000652066696C653F005374616D706172655A
:1035D00020646120534400426C6F636361746F0028
:1035E0004D616E7469656E69207072656D75746F7A
:1035F000207065722073626C6F6363617265206C0A
:1036000061207374616D70616E7465004172722E19
:1036100020456D6572672E2041747469766F005283
:103620006574697265206F7320726573ED64756FE0
:1036300073206461206261736500496D7072657307
:1036400073E36F20656D20706175736100412061C7
:103650006A757374617220706F7369E7E36F004D70
:10366000756461722066696C616D656E746F00418E
:1036700020616A757374617220706F7369E7E36F1C
:1036800000496E73657269722066696C616D656E62
:10369000746F004120616A757374617220706F737A
:1036A00069E7E36F00526574697261722066696C44
:1036B000616D656E746F0046616C6861206E61209B
:1036C0006C6569747572612064612074656D7065E4
:1036D000726174757261004572726F0054656D702D
:1036E0006F20746F74616C004465736C69676172FC
:1036F00000696E617469766F004D6F646F00566F7C
:103700006C74617200506F72206661766F722C204B
:1037100061677561726465005072656D69722070D1
:10372000617261207465726D696E617200507265BC
:103730006D6972207061726120766F6C74617200C5
:103740005072656D6972207061726120636F6D6582
:10375000E76172005072656D697220702F20636F8F
:103760006E74696E756172005072656D6972207059
:103770002F20636F6E6669726D61720048617264BA
:10378000205265736574004964696F6D6100416A18
:103790007573746172206F66667365740045637239
:1037A000E32073E9726965004175746F6E6976652F
:1037B0006C616D656E746F005375706F7274650027
:1037C00056657273E36F0056656E74696C61646F61
:1037D00072004C6564004465736C6F6361722030E5
:1037E0002C31206D6D004465736C6F636172203104
:1037F000206D6D004465736C6F6361722031302001
:103800006D6D004465736C6F6361722065787472CE
:1038100075736F7261004465736C6F6361722065CC
:1038200069786F205A004465736C6F63617220651C
:1038300069786F2059004465736C6F63617220650D
:1038400069786F205800436F6E6669726D6172000F
:1038500054656E746172206465206E6F766F004DE2
:10386000756461722076656C6F636964616465007C
:103870004D756461722066696C616D656E746F0070
:10388000506172617200436F6C6F63617220656D8D
:10389000207061757361005265746F6D6172004DC7
:1038A000756461722074656D7065726174757261A2
:1038B000004465736C6F636172206569786F730093
:1038C0004D6F746F726573204F4646004D6F746F75
:1038D000726573204F4E00446566696E69E7F56551
:1038E0007300496EED63696F004E6976656C6172B5
:1038F000206261736500496E736572697220666942
:103900006C616D656E746F005265746972617220CE
:1039100066696C616D656E746F00496D7072696D7A
:10392000697220646F20534400496E736572697236
:103930002063617274E36F20534400412061706121
:103940006761722C206EE36F206465736C69677524
:1039500065206120696D707265736F7261004861E6
:10396000726420526573657400536520636F6E74D2
:10397000696E75617220736572E36F207265737092
:103980006F73746F73206F732076616C6F726573E1
:103990002064652066E16272696361004174656E4E
:1039A000E7E36F21005265706F722076616C6F7271
:1039B00065733F004861726420526573657400440A
:1039C0006573667275746520646120737561205734
:1039D0006974626F7820322120536520636F6E73A3
:1039E000656775697220696D6167696E61722C2007
:1039F000706F64652066617AEA2D6C6F004C656DAE
:103A00006272652D7365206465206D616E746572E8
:103A10002061206578747275736F72612065206112
:103A200020626173652073656D20726573ED647546
:103A30006F7300436F6D6563656D6F7320706F7298
:103A40002063616C6962726172206F2073656E73AE
:103A50006F7220616A757374616E646F206F206F7E
:103A600066667365740042656D2D76696E646F21BC
:103A70002056616D6F7320636F6D65E76172206121
:103A8000207072657061726172206120696D707260
:103A90006573736F726100506F7274756775EA7346
:103AA0000053656C6563696F6E65206964696F6D4D
:103AB000610057697A61726400436F6E74726F6C53
:103AC0006F2073E9726965004D75646172207665D7
:103AD0006C6F636964616465005475646F20636F23
:103AE000727265746F3F00436F6E636C75ED646F47
:103AF0000041206361727265676172206F206669A0
:103B00006C616D656E746F00496E736572697220C9
:103B100066696C616D656E746F00496E74726F6476
:103B2000757A61206F2066696C616D656E746F20B7
:103B300065207072696D61206F20626F74E36F2081
:103B40007061726120636172726567E12D6C6F0054
:103B5000496E73747275E7F565730041206578707E
:103B6000756C736172005265746972617220666966
:103B70006C616D656E746F00436172726567756527
:103B80002065206167756172646520717565206FBD
:103B90002066696C616D656E746F2073656A612063
:103BA000657870756C7361646F20706172612072EA
:103BB00065746972E12D6C6F00496E73747275E7FC
:103BC000F565730054656D7065726174757261009E
:103BD00054656D7065726174757261004120706129
:103BE00075736172004D756461722066696C616DF8
:103BF000656E746F00496E69636961722070726FDF
:103C0000636573736F3F004D756461722066696C04
:103C1000616D656E746F00506172617200526574FF
:103C20006972652061207065E761206461206261CE
:103C3000736500496D7072657373E36F20636F6E17
:103C4000636C75ED646100506175736100456D20B2
:103C50007061757361005061757361004120696D19
:103C60007072696D69720054656D7065726174750A
:103C70007261005475646F20636F727265746F3F78
:103C800000436F6E636C75ED646F00416A75737409
:103C90006172206F6666736574005072696D612091
:103CA0006520616A75737465206F2076616C6F7230
:103CB000206174E9206120626F7175696C68612010
:103CC000746F6361722061206261736500496E7375
:103CD000747275E7F5657300412063616C63756C00
:103CE0006172206F20706C616E6F20646120626170
:103CF000736500416A7573746172206F66667365DF
:103D000074004120616A757374617220706F736909
:103D1000E7E36F00416A7573746172206F666673C2
:103D200065740054656D70657261747572610049E7
:103D30006E69636961722070726F636573736F3F40
:103D400000416A7573746172206F666673657400F2
:103D50007777772E62712E636F6D20737570706F39
:103D600072742E33642E70744062712E636F6D0016
:103D70005375706F7274650056657273E36F00540B
:103D8000656D70657261747572610054656D706502
:103D9000726174757261004578747275736F7261C7
:103DA000202F2031206D6D004578747275736F720D
:103DB00061202F20302C31206D6D004569786F20F7
:103DC0005A202F203130206D6D004569786F205AC0
:103DD000202F2031206D6D004569786F205A202FEB
:103DE00020302C31206D6D004569786F2059202FCF
:103DF000203130206D6D004569786F2059202F20CB
:103E000031206D6D004569786F2059202F20302CAE
:103E100031206D6D004569786F2058202F2031309A
:103E2000206D6D004569786F2058202F2031206D5E
:103E30006D004569786F2058202F20302C31206D7F
:103E40006D0053656C6563696F6E65206F70E7E3A5
:103E50006F004578747275732E202F204465736C43
:103E60006F632E206D6D0053656C6563696F6E65C1
:103E7000206F70E7E36F004569786F205A202F208C
:103E80004465736C6F636172206D6D0053656C6582
:103E900063696F6E65206F70E7E36F004569786F47
:103EA0002059202F204465736C6F636172206D6D03
:103EB0000053656C6563696F6E65206F70E7E36F33
:103EC000004569786F2058202F204465736C6F631C
:103ED0006172206D6D0054656D70657261747572EC
:103EE00061004171756563657220657874727573E0
:103EF0006F72613F004578747275732E202F2044D5
:103F000065736C6F632E206D6D0053656C6563691E
:103F10006F6E65206F70E7E36F004465736C6F63CD
:103F20006172206569786F73004E6F20736520633E
:103F30006F6E68656365206120706F7369E7E36F7A
:103F40002C207265616C697A6520686F6D652070E0
:103F500061726120636F6E74696E75617200446591
:103F6000736C6F636172206569786F730044656676
:103F7000696E69E7F56573004120616A7573746164
:103F80007220706F7369E7E36F00496EED63696FCC
:103F90000054656D706572617475726100496E6977
:103FA000636961722070726F636573736F3F00495C
:103FB0006EED63696F005475646F20636F72726594
:103FC000746F3F00436F6E636C75ED646F00416A00
:103FD00075737465206F20746572636569726F20F4
:103FE000706F6E746F206174E92073652061636582
:103FF0006E6465722061206C757A207665726D65DD
:104000006C6861004E6976656C61722062617365EF
:1040100000416A75737465206F20736567756E64FF
:104020006F20706F6E746F206174E920736520617A
:1040300063656E6465722061206C757A20766572A6
:104040006D656C6861004E6976656C6172206261B5
:10405000736500416A75737465206F207072696DB5
:104060006569726F20706F6E746F206174E92073E0
:1040700065206163656E6465722061206C757A20CD
:104080007665726D656C6861004E6976656C61720B
:104090002062617365004120616A757374617220EA
:1040A000706F7369E7E36F00496EED63696F0054E9
:1040B000656D706572617475726100496E696369DE
:1040C00061722070726F636573736F3F004E697623
:1040D000656C61722062617365005475646F206362
:1040E0006F727265746F3F00436F6E636C75ED6441
:1040F0006F0041206361727265676172206F206694
:10410000696C616D656E746F00496E73657269727A
:104110002066696C616D656E746F00496E74726FB4
:1041200064757A61206F2066696C616D656E746F6D
:104130002065207072696D61206F20626F74E36F7B
:10414000207061726120636172726567E12D6C6F2E
:1041500000496E73747275E7F565730054656D7090
:10416000657261747572610054656D706572617419
:10417000757261004120616A757374617220706F9D
:104180007369E7E36F00496E73657269722066694F
:104190006C616D656E746F00496E69636961722050
:1041A00070726F636573736F3F00496E73657269F8
:1041B000722066696C616D656E746F005475646F12
:1041C00020636F727265746F3F00436F6E636C752E
:1041D000ED646F004120657870756C7361720052F8
:1041E0006574697261722066696C616D656E746F69
:1041F000004361727265677565206520616775614E
:1042000072646520717565206F2066696C616D65EB
:104210006E746F2073656A6120657870756C736168
:10422000646F2070617261207265746972E12D6C37
:104230006F00496E73747275E7F565730054656DB0
:1042400070657261747572610054656D706572613C
:1042500074757261004120616A75737461722070B7
:104260006F7369E7E36F005265746972617220666B
:10427000696C616D656E746F00496E696369617226
:104280002070726F636573736F3F0052657469725B
:1042900061722066696C616D656E746F0050617348
:1042A000746120616E746572696F7200566F6C7410
:1042B000617220616F206D656E7500496D70726965
:1042C0006D697220666963686569726F3F00496D48
:1042D0007072696D697220646F20534400426C6F84
:1042E00071756561646F004D616E74657220636104
:1042F0007272656761646F207061726120646573BA
:10430000626C6F7175656172206120696D70726594
:1043100073736F7261005061726167656D20456DE6
:104320006572672E20417469766100526574697206
:10433000657A206C65732072E97369647573206413
:104340007520706C617465617500496D707265737C
:1043500073696F6E20617272EA74E9650052E967F1
:104360006C61676520706F736974696F6E00436874
:10437000616E676572206C652066696C616D656E43
:10438000740052E9676C61676520706F73697469C6
:104390006F6E00496E73E9726572206C6520666904
:1043A0006C616D656E740052E9676C6167652070C1
:1043B0006F736974696F6E005265746972657220FB
:1043C0006C652066696C616D656E7400457272651E
:1043D0007572206C6F7273206465206C61206C654F
:1043E0006374757265206465206C612074656D70FE
:1043F000E972617475726500457272657572004488
:104400007572E96500C97465696E647265007665E8
:10441000696C6C65004D6F6465005265746F7572F0
:104420000050617469656E74657A2073767000411E
:10443000707075792E207072207465726D696E656A
:10444000720041707075792E2070722072657665E9
:104450006E69720041707075792E20707220636FE2
:104460006D6D656E6365720041707075792E207098
:104470007220636F6E74696E75657200417070753D
:10448000792E20707220636F6E6669726D6572009E
:1044900048617264205265736574004C616E677583
:1044A000650052E9676C6572204F6666736574003B
:1044B000C96372616E2073E9726965004175746F3A
:1044C0002D6E6976656C6C656D2E004169646500C2
:1044D00056657273696F6E0056656E74696C6174AF
:1044E000657572004C45440044E9706C6163657207
:1044F00020302C31206D6D0044E9706C6163657271
:104500002031206D6D0044E9706C6163657220316B
:1045100030206D6D0044E9706C61636572206578D0
:10452000747275642E0044E9706C61636572206179
:104530007865205A0044E9706C6163657220617887
:104540006520590044E9706C61636572206178658B
:10455000205800436F6E6669726D65720052E9659E
:10456000737361796572004D6F6469666965722065
:1045700076697465737365004368616E6765722060
:1045800066696C616D656E7400417272EA74657281
:104590000053757370656E64726500526570726564
:1045A0006E647265004D6F6469666965722074653A
:1045B0006D702E0044E9706C6163657220617865EE
:1045C00073004D6F74657572732064E97361637471
:1045D0006976E973004D6F74657572732061637459
:1045E0006976E9730052E9676C616765730041633E
:1045F000637565696C004E6976656C657220706CD8
:10460000617465617500496E73E97265722066694F
:104610006C616D656E7400526574697265722066B6
:10462000696C616D656E7400496D70722E206465F1
:104630007075697320534400496E73E972657A207E
:1046400063617274652053440053757070726573B2
:1046500073696F6E20656E20636F7572732C206EA8
:10466000652070617320E97465696E647265206C01
:1046700027696D7072696D616E746500486172645E
:1046800020526573657400536920766F75732063DB
:104690006F6E74696E75657A2C206C657320766117
:1046A0006C657572732064277573696E6520736518
:1046B000726F6E742072657374617572E965732E22
:1046C00000417474656E74696F6E21005265737475
:1046D00061757265722076616C657572733F004812
:1046E00061726420526573657400566F757320EAB9
:1046F000746573207072EA7420E0207574696C69C7
:1047000073657220766F74726520576974626F7872
:1047100020322E20496D7072696D657A20746F7534
:1047200074657320766F73206964E9657321004EA8
:10473000276F75626C69657A2070617320646520EB
:104740006E6574746F796572206C65732072E9739D
:1047500069647573206465206C276578747275646C
:104760006575736520657420647520706C6174656F
:10477000617500436F6D6D656E63657A207061725F
:104780002063616C6962726572206C652063617080
:104790007465757220656E2072E9676C616E7420B5
:1047A0006C276F6666736574004269656E76656E28
:1047B000756521205072E97061726F6E7320656EAD
:1047C00073656D626C65206C27696D7072696D61CF
:1047D0006E7465004672616EE76169730053E96C3F
:1047E000656374696F6E6E657A206C616E6775655E
:1047F00000417373697374616E7400436F6E7472F9
:10480000F46C652073E9726965004D6F64696669CF
:104810006572206C61207669746573736500546FEE
:1048200075742065737420656E206F726472653FC5
:10483000005465726D696EE9004368617267656D69
:10484000656E742064752066696C616D656E7400B8
:10485000496E73E9726572206C652066696C616DE2
:10486000656E7400496E73E972657A206C65206626
:10487000696C616D656E7420657420617070757906
:10488000657A20737572206C6520626F75746F6E27
:1048900020706F7572206C65206368617267657245
:1048A00000496E737472756374696F6E7300457836
:1048B00070756C73696F6E20656E20636F757273AF
:1048C0000052657469726572206C652066696C615E
:1048D0006D656E74004170707579657A20707569C8
:1048E0007320617474656E64657A206C27657870D6
:1048F000756C73696F6E2064752066696C616D6597
:104900006E7420706F7572206C65207265746972A8
:10491000657200496E737472756374696F6E7300AB
:1049200054656D70E97261747572650054656D70DF
:10493000E97261747572650053757370656E7369A1
:104940006F6E004368616E676572206C65206669F2
:104950006C616D656E740044E962757465722070F7
:10496000726F6365737375733F004368616E67654B
:1049700072206C652066696C616D656E74004172B1
:1049800072EA746572005265746972657A206C27E8
:104990006F626A657420647520706C6174656175FE
:1049A00000496D7072657373696F6E207465726D06
:1049B000696EE9650053757370656E73696F6E009B
:1049C000456E2070617573650050617573650049AF
:1049D0006D7072657373696F6E0054656D70E97206
:1049E000617475726500546F757420657374206509
:1049F0006E206F726472653F005465726D696EE976
:104A00000052E9676C6572204F66667365740041F9
:104A100070707579657A2065742072E9676C657AC3
:104A2000206C612076616C657572206A7573717592
:104A300027E020636520717565206C27656D626FC6
:104A4000757420746F75636865206C6520706C6187
:104A50007465617500496E737472756374696F6E05
:104A6000730043616C63756C20647520706C616EBB
:104A700020647520706C61746561750052E9676C23
:104A80006572204F66667365740052E9676C6167F2
:104A90006520706F736974696F6E20656E20636F37
:104AA0007572730052E9676C6572204F66667365B4
:104AB000740054656D70E97261747572650044E943
:104AC00062757465722070726F6365737375733F7E
:104AD0000052E9676C6572204F66667365740077F3
:104AE00077772E62712E636F6D20737570706F72A1
:104AF000742E33642E66724062712E636F6D0041B6
:104B00006964650056657273696F6E0054656D70F7
:104B1000E97261747572650054656D70E972617453
:104B20007572650045787472756465757365202FBC
:104B30002031206D6D0045787472756465757365FC
:104B4000202F20302C31206D6D00417865205A20B7
:104B50002F203130206D6D00417865205A202F20A4
:104B600031206D6D00417865205A202F20302C3186
:104B7000206D6D004178652059202F203130206D47
:104B80006D004178652059202F2031206D6D004146
:104B900078652059202F20302C31206D6D00417810
:104BA000652058202F203130206D6D004178652020
:104BB00058202F2031206D6D004178652058202F1E
:104BC00020302C31206D6D0053E96C656374696F82
:104BD0006E6E657A206F7074696F6E0045787472BE
:104BE000752E202F2044E9706C61636572206D6D15
:104BF0000053E96C656374696F6E6E657A206F703F
:104C000074696F6E00417865205A202F2044E97046
:104C10006C61636572206D6D0053E96C6563746946
:104C20006F6E6E657A206F7074696F6E0041786583
:104C30002059202F2044E9706C61636572206D6DEE
:104C40000053E96C656374696F6E6E657A206F70EE
:104C500074696F6E004178652058202F2044E970F8
:104C60006C61636572206D6D0054656D70E97261F1
:104C7000747572650043686175662E20657874727C
:104C80007564657573653F0045787472752E202FC5
:104C90002044E9706C61636572206D6D0053E96CAE
:104CA000656374696F6E6E657A206F7074696F6E7C
:104CB0000044E9706C61636572206178657300502F
:104CC0006F736974696F6E20696E636F6E6E756560
:104CD0002C2073E96C656374696F6E6E657A206869
:104CE0006F6D6520706F757220636F6E74696E757D
:104CF00065720044E9706C61636572206C657320B5
:104D0000617865730052E9676C616765730052E909
:104D1000676C61676520706F736974696F6E0041BD
:104D200063637565696C0054656D70E972617475D3
:104D300072650044E962757465722070726F636514
:104D4000737375733F004163637565696C00546FDD
:104D500075742065737420656E206F726472653F90
:104D6000005465726D696EE90052E9676C657A20DE
:104D70006C652074726F697369E86D6520706F6986
:104D80006E74206A7573717527E0206365207175F4
:104D900065207327616C6C756D65206C61206C7586
:104DA0006D69E8726520726F756765004E6976659A
:104DB0006C657220706C61746561750052E9676C96
:104DC000657A206C65206465757869E86D6520708A
:104DD0006F696E74206A7573717527E020636520B2
:104DE000717565207327616C6C756D65206C612031
:104DF0006C756D69E8726520726F756765004E6944
:104E000076656C657220706C61746561750052E93D
:104E1000676C657A206C65207072656D69657220BB
:104E2000706F696E74206A7573717527E020636511
:104E300020717565207327616C6C756D65206C61E0
:104E4000206C756D69E8726520726F756765004E3C
:104E50006976656C657220706C617465617500526D
:104E6000E9676C61676520706F736974696F6E20A4
:104E7000656E20636F757273004163637565696C5D
:104E80000054656D70E97261747572650044E96281
:104E9000757465722070726F6365737375733F000C
:104EA0004E6976656C657220706C61746561750021
:104EB000546F75742065737420656E206F72647210
:104EC000653F005465726D696EE900436861726701
:104ED000656D656E742064752066696C616D656EC4
:104EE0007400496E73E9726572206C652066696CA6
:104EF000616D656E7400496E73E972657A206C6548
:104F00002066696C616D656E7420657420617070D7
:104F10007579657A20737572206C6520626F75747F
:104F20006F6E20706F7572206C65206368617267A8
:104F3000657200496E737472756374696F6E730085
:104F400054656D70E97261747572650054656D70B9
:104F5000E97261747572650052E9676C616765207A
:104F6000706F736974696F6E00496E73E972657270
:104F7000206C652066696C616D656E740044E96241
:104F8000757465722070726F6365737375733F001B
:104F9000496E73E9726572206C652066696C616D9B
:104FA000656E7400546F75742065737420656E208F
:104FB0006F726472653F005465726D696EE90045F9
:104FC0007870756C73696F6E20656E20636F757293
:104FD000730052657469726572206C652066696C35
:104FE000616D656E74004170707579657A207075B9
:104FF000697320617474656E64657A206C276578C6
:1050000070756C73696F6E2064752066696C616D74
:10501000656E7420706F7572206C6520726574699E
:1050200072657200496E737472756374696F6E7322
:105030000054656D70E97261747572650054656D38
:1050400070E97261747572650052E9676C61676539
:1050500020706F736974696F6E0052657469726550
:1050600072206C652066696C616D656E740044E940
:1050700062757465722070726F6365737375733FC8
:105080000052657469726572206C652066696C6196
:105090006D656E7400446F7373696572207072E998
:1050A00063E964656E7400526576656E69722061AD
:1050B00075206D656E7500496D7072696D65722041
:1050C000666963686965723F00496D70722E20647D
:1050D000657075697320534400566572726F756907
:1050E0006C6CE965004170707579657A20646520A3
:1050F0006661E76F6E2070726F6C6F6E67E9652096
:1051000070722064E9766572726F75696C6C657295
:10511000206C27696D7072696D616E7465004172F3
:1051200072EA74206427757267656E6365204F4E5E
:1051300000456E746665726E65206469652052FC78
:10514000636B7374E46E646520766F6E20646572C1
:1051500020506C6174746500447275636B20616EDD
:10516000676568616C74656E00506F736974696F10
:105170006E736175737269636874756E672000463B
:10518000696C616D656E74207765636873656C6EBC
:1051900000506F736974696F6E73617573726963C0
:1051A0006874756E670046696C616D656E74206524
:1051B000696E66FC6872656E00506F736974696F22
:1051C0006E736175737269636874756E67004669A2
:1051D0006C616D656E7420656E746E65686D656E6C
:1051E000004665686C6572206265696D2041757363
:1051F0006C6573656E206465722054656D706572B0
:1052000061747572004665686C657200476573610C
:105210006D747A6569740041757300696E616B74B1
:105220006976004D6F647573005A7572FC636B008C
:1052300042697474652077617274656E005A756D89
:10524000204265656E64656E206472FC636B656EFA
:105250000046FC72205A7572FC636B206472FC631A
:105260006B656E0046FC7220537461727420647228
:10527000FC636B656E0046FC72205765697465724D
:10528000206472FC636B656E005A756D20416E6E12
:1052900065686D656E206472FC636B656E004861C5
:1052A000726420526573657400537072616368653F
:1052B000004F66667365742065696E73742E0053C3
:1052C00065722E20446973706C6179004175746F4A
:1052D0006D2E204E69762E0048696C666500566515
:1052E0007273696F6E004CFC66746572004C4544C5
:1052F00000302C31206D6D206265776567656E002A
:1053000031206D6D206265776567656E00313020F4
:105310006D6D206265776567656E0045787472759E
:10532000646572206265776567656E005A2D41631A
:10533000687365206265776567656E00592D416306
:10534000687365206265776567656E00582D4163F7
:10535000687365206265776567656E004265737482
:10536000E4746967656E0045726E657574207665D4
:105370007273756368656E004765736368772E2086
:10538000E46E6465726E0046696C616D656E7420D2
:105390007765636873656C6E00416E68616C7465F7
:1053A0006E00506175736500466F72746661687255
:1053B000656E0054656D7065726174757220E46E7F
:1053C0006465726E0041636873656E20626577651F
:1053D00067656E004D6F746F72656E2041555300A6
:1053E0004D6F746F72656E2045494E0045696E734E
:1053F00074656C6C756E67656E00486F6D65005006
:105400006C61747465206E6976656C6C6965726533
:105410006E0046696C616D656E742065696E66FC30
:105420006872656E0046696C616D656E7420656EAC
:10543000746665726E656E00566F6E2053444B61E4
:1054400072746520647275636B656E0053442D4BF6
:10545000617274652065696E7365747A656E004C5F
:10546000F6736368743B2064656E20447275636BE9
:105470006572206A65747A74206E6963687420614D
:105480007573736368616C74656E00486172642043
:10549000526573657400447572636820466F727458
:1054A00066616872656E2077657264656E206469F6
:1054B00065205765726B732D65696E7374656C6CCE
:1054C000756E67656E207A7572FC636B67657365D0
:1054D000747A740041636874756E6721005A75723E
:1054E000FC636B7365747A656E3F0048617264207B
:1054F0005265736574005669656C20537061DF20D6
:105500006D6974206465696E656D20576974626F9A
:1055100078203221204465696E6572205068616E82
:1055200074617369652073696E64206B65696E656B
:10553000204772656E7A656E2067657365747A744C
:10554000004163687465206461726175662C206433
:10555000656E20457874727564657220756E64207E
:1055600064696520506C617474652072FC636B73B0
:1055700074616E647366726569207A752068616C07
:1055800074656E0057697220626567696E6E656E3C
:10559000206D69742064656D204B616C696272696D
:1055A0006572656E206465732053656E736F7273E8
:1055B000206D697420646572204F66667365742D72
:1055C00045696E7374656C6C756E670057696C6CB9
:1055D0006B6F6D6D656E212057697220626567691A
:1055E0006E6E656E206D69742064657220566F72F0
:1055F000626572656974756E6720646573204472B4
:1056000075636B65727300446575747363680053EA
:105610007072616368652077E4686C656E00576935
:105620007A6172640053657269656C6C65205374AD
:1056300065756572756E67004765736368772E20C0
:10564000C46E6465726E00416C6C65732072696330
:10565000687469673F004665727469670046696CE3
:10566000616D656E7420776972642067656C616432
:10567000656E0046696C616D656E742065696E6665
:10568000FC6872656E0046FC687265206461732078
:1056900046696C616D656E742065696E20756E6417
:1056A000206472FC636B652064656E204B6E6F70C6
:1056B000662C20756D206573207A75206C61646599
:1056C0006E00416E77656973756E67656E00417532
:1056D00073676162650046696C616D656E74206513
:1056E0006E746E65686D656E004472FC636B652058
:1056F000756E6420776172746520626973206461DD
:10570000732046696C616D656E74206175736765A1
:10571000676562656E20776972642C20756D2065FF
:1057200073207A7520656E746665726E656E0041D1
:105730006E77656973756E67656E0054656D70652B
:1057400072617475720054656D7065726174757202
:105750000050617573696572740046696C616D65AE
:105760006E74207765636873656C6E00566F726740
:10577000616E67207374617274656E3F0046696C78
:10578000616D656E74207765636873656C6E00414A
:105790006E68616C74656E00447275636B7374FC43
:1057A000636B20766F6E20426173697320656E743F
:1057B0006665726E656E00447275636B2061626728
:1057C000657363686C6F7373656E005061757369A0
:1057D00065727400496E2050617573650050617583
:1057E000736500447275636B740054656D70657207
:1057F0006174757200416C6C6573207269636874C2
:1058000069673F00466572746967004F6666736535
:10581000742065696E7374656C6C656E004472FC0F
:10582000636B6520756E64207374656C6C652064B1
:10583000656E20576572742065696E2062697320F9
:105840006469652044FC73652064696520506C615F
:1058500074746520626572FC68727400416E7765CD
:105860006973756E67656E0044696520466CE46314
:1058700068652064657220506C6174746520776976
:105880007264206B616C6B756C69657274004F6635
:10589000667365742065696E7374656C6C656E0003
:1058A000506F736974696F6E736175737269636841
:1058B00074756E6720004F66667365742065696E47
:1058C0007374656C6C656E0054656D70657261749F
:1058D000757200566F7267616E67207374617274BF
:1058E000656E3F004F66667365742065696E7374FC
:1058F000656C6C656E007777772E62712E636F6DC5
:1059000020737570706F72742E33642E64654062FC
:10591000712E636F6D0048696C6665005665727321
:10592000696F6E0054656D706572617475720054B4
:10593000656D706572617475720045787472756416
:1059400065722F2031206D6D004578747275646525
:10595000722F20302C31206D6D005A2D41636873F9
:10596000652F203130206D6D005A2D4163687365BD
:105970002F2031206D6D005A2D41636873652F20F3
:10598000302C31206D6D00592D41636873652F20D7
:105990003130206D6D00592D41636873652F2031C2
:1059A000206D6D00592D41636873652F20302C31B7
:1059B000206D6D00582D41636873652F20313020B4
:1059C0006D6D00582D41636873652F2031206D6D1A
:1059D00000582D41636873652F20302C31206D6D88
:1059E000004175737761686C207472656666656ED8
:1059F0000045787472756465722F206D6D20626544
:105A0000776567656E004175737761686C207472A5
:105A1000656666656E005A2D41636873652F206D5B
:105A20006D206265776567656E00417573776168A3
:105A30006C207472656666656E00592D41636873EB
:105A4000652F206D6D206265776567656E00417515
:105A5000737761686C207472656666656E00582D98
:105A600041636873652F206D6D206265776567659A
:105A70006E0054656D70657261747572004578745E
:105A800072756465722065726869747A656E3F002C
:105A900045737472756465722F206D6D2062657731
:105AA0006567656E004175737761686C2074726517
:105AB0006666656E0041636873656E206265776532
:105AC00067656E00556E62656B616E6E7465205021
:105AD0006F736974696F6E2E204B65687265207AEA
